:100000000C942A000C9447000C9447000C94470071
:100010000C9447000C9447000C9447000C94470044
:100020000C9447000C9447000C9447000C94D601A4
:100030000C9447000C948C030C9447000C944700DC
:100040000C9447000C9447000C9447000C94470014
:100050000C94470011241FBECFE5D8E0DEBFCDBF12
:1000600010E0A0E6B0E0E8E1F9E002C005900D92F2
:10007000A436B107D9F711E0A4E6B0E001C01D92A3
:10008000AE36B107E1F70E9449000C948A040C9443
:1000900000008AB180698AB98AE189B9B89AC09AA0
:1000A00080E197E226E630E0F9013197F1F7019718
:1000B000D9F7C09881B3806F81BB85B3836085BB5E
:1000C00083B7836083BF89B7816089BF8FB580683C
:1000D0008FBD8FB581608FBD8EB588608EBD8EB5AA
:1000E00082608EBD85E886B980EC87B9789441E05E
:1000F00026E630E0989925C0F894809167008150F9
:100100008093670080916000885E8093600080919A
:1001100060008150809360008091600068E10E94DF
:100120004A04909360004093680010926A00109215
:100130006900789488E893E1F9013197F1F7019724
:10014000D9F79999D7CFF894809167008F5F809302
:100150006700809160008F5F8093600080916000F5
:1001600068E10E944A0490936000409368001092F6
:100170006A0010926900789488E893E1F901319758
:10018000F1F70197D9F7B6CFEF920F9381FF03C034
:10019000949A000002C094980000979A00009798E3
:1001A000000082FF03C0949A000002C094980000EF
:1001B000979A00009798000083FF03C0949A00006C
:1001C00002C094980000979A00009798000080FF62
:1001D00003C0949A000002C094980000979A00000F
:1001E0009798000061FF03C0949A000002C09498A1
:1001F0000000979A00009798000062FF03C0949A4D
:10020000000002C094980000979A000097980000A0
:1002100063FF03C0949A000002C094980000979A6C
:1002200000009798000060FF03C0949A000002C08D
:1002300094980000979A00009798000041FF03C02F
:10024000949A000002C094980000979A0000979832
:10025000000042FF03C0949A000002C0949800007E
:10026000979A00009798000043FF03C0949A0000FB
:1002700002C094980000979A00009798000040FFF1
:1002800003C0949A000002C094980000979A00005E
:100290009798000021FF03C0949A000002C0949830
:1002A0000000979A00009798000022FF03C0949ADC
:1002B000000002C094980000979A000097980000F0
:1002C00023FF03C0949A000002C094980000979AFC
:1002D00000009798000020FF03C0949A000002C01D
:1002E00094980000979A00009798000001FF03C0BF
:1002F000949A000002C094980000979A0000979882
:10030000000002FF03C0949A000002C0949800000D
:10031000979A00009798000003FF03C0949A00008A
:1003200002C094980000979A00009798000000FF80
:1003300003C0949A000002C094980000979A0000AD
:1003400097980000E2FE03C0949A000002C09498BF
:100350000000979A000097980000E3FE03C0949A6B
:10036000000002C094980000979A0000979800003F
:10037000E0FE03C0949A000002C094980000979A8F
:10038000000097980000E1FE03C0949A000002C0AC
:1003900094980000979A0000979800000000969AA1
:1003A0000000969800000F91EF9008951F920F9211
:1003B0000FB60F921124EF920F932F933F934F9309
:1003C0005F936F937F938F939F93AF93BF93EF93BD
:1003D000FF9380916500909166000496909366006B
:1003E000809365008091650090916600885E9340DF
:1003F00009F05DC010926600109265008091620065
:100400008F5F80936200809162008C3301F51092BF
:100410006200809161008F5F809361008091610034
:100420008C33A9F410926100809160008F5F8093FB
:10043000600081E080936B0010926C0010926D0060
:1004400080916000883119F410926000C09880910A
:100450006B00882361F580916800882341F58091C5
:100460006000209160003091610050916100E09146
:100470006200A09162006AE00E944A04B82F822FB5
:100480000E944A04F92F832F0E944A04482F852F87
:100490000E944A04292F8E2F0E944A04082F8A2F77
:1004A0000E944A048B2F6F2FE92E0E94C400809176
:1004B0006B008823D9F4809168008823B9F4369AB8
:1004C0003699FECF84B195B1969587959695879587
:1004D0008F3F910521F018F08FEF90E005C0823337
:1004E000910510F482E390E09BBD8ABD80916B0082
:1004F000882309F452C08FEF90E09BBD8ABD8091A4
:100500006D008A3000F580916C008233A0F48091F8
:100510006D0060916D0040916D0020916D00009123
:100520006D00E0906D000E94C40080916C008F5FB0
:1005300080936C0032C080916D008F5F80936D005E
:1005400010926C002AC010926B0080916000209184
:1005500060003091610050916100E0916200A091D3
:1005600062006AE00E944A04B82F822F0E944A0467
:10057000F92F832F0E944A04482F852F0E944A0496
:10058000292F8E2F0E944A04082F8A2F0E944A0486
:100590008B2F6F2FE92E0E94C40080916800882362
:1005A00009F472C08091670087FF1DC080916700C9
:1005B00020916700992787FD909566EF7FEF0E9455
:1005C0006304062F332727FD309588279927821B40
:1005D000930B6AE070E00E946304E82E81E06FE014
:1005E0004FE02FE011C080916700209167006AE022
:1005F0000E945604082F822F6AE00E94560480E071
:100600006FE04FE02FE0E92E0E94C4008091690066
:1006100090916A00019690936A008093690080919E
:10062000690090916A00825E944071F510926800B2
:1006300010926A0010926900809160002091600021
:100640003091610050916100E0916200A0916200E0
:100650006AE00E944A04B82F822F0E944A04F92FB0
:10066000832F0E944A04482F852F0E944A04292F75
:100670008E2F0E944A04082F8A2F0E944A048B2F33
:100680006F2FE92E0E94C400FF91EF91BF91AF91AF
:100690009F918F917F916F915F914F913F912F919A
:1006A0000F91EF900F900FBE0F901F901895209113
:1006B0006E0091E005C0903861F1808128279F5F2E
:1006C000A92FB0E0FD01E259FF4F80818A3299F7EE
:1006D000FD01E159FF4FE081A059BF4F8C91E134FA
:1006E00018F09E2F975302C09E2F9053813418F01C
:1006F000E82FE75302C0E82FE053822F82958F70D6
:10070000981739F490E02F70E21391E081E0982778
:1007100001C090E0892F08951F920F920FB60F929B
:100720001124EF920F932F933F934F935F936F9307
:100730007F938F939F93AF93BF93EF93FF938CB16E
:10074000843209F089C01092640080916E00873471
:1007500009F08DC080916F00803509F088C08091CC
:100760007000873409F083C080917100873409F0EC
:100770007EC080917200813409F079C0809174004C
:100780008C3209F474C00E945703882309F46FC0A7
:10079000C09AF894809174002091750020513AE03D
:1007A000839FC0011124280F209360008091600076
:1007B00090916700885E890F80936000809160004F
:1007C00068E10E944A049093600080917600209135
:1007D00077002051839FC0011124280F20936100CE
:1007E00080917800209179002051839FC0011124CD
:1007F000280F20936200109266001092650012BECE
:100800007894809160002091600030916100509157
:100810006100E0916200A09162006AE00E944A04D7
:10082000B82F822F0E944A04F92F832F0E944A0476
:10083000482F852F0E944A04292F8E2F0E944A0498
:10084000082F8A2F0E944A048B2F6F2FE92E0E94B7
:10085000C40010926E000BC0E0916400F0E0E25919
:10086000FF4F8083809164008F5F80936400FF91CD
:10087000EF91BF91AF919F918F917F916F915F9118
:100880004F913F912F910F91EF900F900FBE0F90CE
:100890001F901895991B79E004C0991F961708F0CE
:1008A000961B881F7A95C9F78095089587FB082EB7
:1008B000062687FD819567FD6195ECDF0EF4919525
:1008C00007FC8195089597FB092E07260AD077FD2E
:1008D00004D00CD006D000201AF4709561957F4F9B
:1008E0000895F6F7909581959F4F0895AA1BBB1B1D
:1008F00051E107C0AA1FBB1FA617B70710F0A61B20
:10090000B70B881F991F5A95A9F780959095BC0140
:08091000CD010895F894FFCF1A
:04091800173B320057
:00000001FF
